{
  "contractName": "MyToken",
  "abi": [
    {
      "inputs": [
        {
          "internalType": "string",
          "name": "_name",
          "type": "string"
        },
        {
          "internalType": "string",
          "name": "_symbol",
          "type": "string"
        },
        {
          "internalType": "uint256",
          "name": "_totalSupply",
          "type": "uint256"
        }
      ],
      "stateMutability": "nonpayable",
      "type": "constructor"
    },
    {
      "anonymous": false,
      "inputs": [
        {
          "indexed": true,
          "internalType": "address",
          "name": "owner",
          "type": "address"
        },
        {
          "indexed": true,
          "internalType": "address",
          "name": "spender",
          "type": "address"
        },
        {
          "indexed": false,
          "internalType": "uint256",
          "name": "value",
          "type": "uint256"
        }
      ],
      "name": "Approval",
      "type": "event"
    },
    {
      "anonymous": false,
      "inputs": [
        {
          "indexed": true,
          "internalType": "address",
          "name": "from",
          "type": "address"
        },
        {
          "indexed": false,
          "internalType": "uint256",
          "name": "value",
          "type": "uint256"
        }
      ],
      "name": "Burn",
      "type": "event"
    },
    {
      "anonymous": false,
      "inputs": [
        {
          "indexed": true,
          "internalType": "address",
          "name": "owner",
          "type": "address"
        },
        {
          "indexed": false,
          "internalType": "bool",
          "name": "status",
          "type": "bool"
        }
      ],
      "name": "Lock",
      "type": "event"
    },
    {
      "anonymous": false,
      "inputs": [
        {
          "indexed": true,
          "internalType": "address",
          "name": "from",
          "type": "address"
        },
        {
          "indexed": true,
          "internalType": "address",
          "name": "to",
          "type": "address"
        },
        {
          "indexed": false,
          "internalType": "uint256",
          "name": "value",
          "type": "uint256"
        }
      ],
      "name": "Transfer",
      "type": "event"
    },
    {
      "inputs": [
        {
          "internalType": "address",
          "name": "",
          "type": "address"
        },
        {
          "internalType": "address",
          "name": "",
          "type": "address"
        }
      ],
      "name": "allowance",
      "outputs": [
        {
          "internalType": "uint256",
          "name": "",
          "type": "uint256"
        }
      ],
      "stateMutability": "view",
      "type": "function"
    },
    {
      "inputs": [
        {
          "internalType": "address",
          "name": "",
          "type": "address"
        }
      ],
      "name": "balanceOf",
      "outputs": [
        {
          "internalType": "uint256",
          "name": "",
          "type": "uint256"
        }
      ],
      "stateMutability": "view",
      "type": "function"
    },
    {
      "inputs": [],
      "name": "isLocked",
      "outputs": [
        {
          "internalType": "bool",
          "name": "",
          "type": "bool"
        }
      ],
      "stateMutability": "view",
      "type": "function"
    },
    {
      "inputs": [],
      "name": "name",
      "outputs": [
        {
          "internalType": "string",
          "name": "",
          "type": "string"
        }
      ],
      "stateMutability": "view",
      "type": "function"
    },
    {
      "inputs": [],
      "name": "owner",
      "outputs": [
        {
          "internalType": "address",
          "name": "",
          "type": "address"
        }
      ],
      "stateMutability": "view",
      "type": "function"
    },
    {
      "inputs": [],
      "name": "symbol",
      "outputs": [
        {
          "internalType": "string",
          "name": "",
          "type": "string"
        }
      ],
      "stateMutability": "view",
      "type": "function"
    },
    {
      "inputs": [],
      "name": "totalSupply",
      "outputs": [
        {
          "internalType": "uint256",
          "name": "",
          "type": "uint256"
        }
      ],
      "stateMutability": "view",
      "type": "function"
    },
    {
      "inputs": [
        {
          "internalType": "address",
          "name": "_to",
          "type": "address"
        },
        {
          "internalType": "uint256",
          "name": "_value",
          "type": "uint256"
        }
      ],
      "name": "transfer",
      "outputs": [
        {
          "internalType": "bool",
          "name": "success",
          "type": "bool"
        }
      ],
      "stateMutability": "nonpayable",
      "type": "function"
    },
    {
      "inputs": [
        {
          "internalType": "address",
          "name": "_spender",
          "type": "address"
        },
        {
          "internalType": "uint256",
          "name": "_value",
          "type": "uint256"
        }
      ],
      "name": "approve",
      "outputs": [
        {
          "internalType": "bool",
          "name": "success",
          "type": "bool"
        }
      ],
      "stateMutability": "nonpayable",
      "type": "function"
    },
    {
      "inputs": [
        {
          "internalType": "address",
          "name": "_from",
          "type": "address"
        },
        {
          "internalType": "address",
          "name": "_to",
          "type": "address"
        },
        {
          "internalType": "uint256",
          "name": "_value",
          "type": "uint256"
        }
      ],
      "name": "transferFrom",
      "outputs": [
        {
          "internalType": "bool",
          "name": "success",
          "type": "bool"
        }
      ],
      "stateMutability": "nonpayable",
      "type": "function"
    },
    {
      "inputs": [
        {
          "internalType": "uint256",
          "name": "_value",
          "type": "uint256"
        }
      ],
      "name": "burn",
      "outputs": [
        {
          "internalType": "bool",
          "name": "success",
          "type": "bool"
        }
      ],
      "stateMutability": "nonpayable",
      "type": "function"
    },
    {
      "inputs": [
        {
          "internalType": "bool",
          "name": "_status",
          "type": "bool"
        }
      ],
      "name": "lock",
      "outputs": [
        {
          "internalType": "bool",
          "name": "success",
          "type": "bool"
        }
      ],
      "stateMutability": "nonpayable",
      "type": "function"
    },
    {
      "inputs": [
        {
          "internalType": "address",
          "name": "_newOwner",
          "type": "address"
        }
      ],
      "name": "changeOwner",
      "outputs": [
        {
          "internalType": "bool",
          "name": "success",
          "type": "bool"
        }
      ],
      "stateMutability": "nonpayable",
      "type": "function"
    }
  ],
  "bytecode": "0x60806040523480156200001157600080fd5b5060405162001be438038062001be48339818101604052810190620000379190620002be565b826000908162000048919062000599565b5081600190816200005a919062000599565b508060028190555033600360006101000a81548173ffffffffffffffffffffffffffffffffffffffff021916908373ffffffffffffffffffffffffffffffffffffffff16021790555080600460003373ffffffffffffffffffffffffffffffffffffffff1673ffffffffffffffffffffffffffffffffffffffff1681526020019081526020016000208190555050505062000680565b6000604051905090565b600080fd5b600080fd5b600080fd5b600080fd5b6000601f19601f8301169050919050565b7f4e487b7100000000000000000000000000000000000000000000000000000000600052604160045260246000fd5b62000159826200010e565b810181811067ffffffffffffffff821117156200017b576200017a6200011f565b5b80604052505050565b600062000190620000f0565b90506200019e82826200014e565b919050565b600067ffffffffffffffff821115620001c157620001c06200011f565b5b620001cc826200010e565b9050602081019050919050565b60005b83811015620001f9578082015181840152602081019050620001dc565b60008484015250505050565b60006200021c6200021684620001a3565b62000184565b9050828152602081018484840111156200023b576200023a62000109565b5b62000248848285620001d9565b509392505050565b600082601f83011262000268576200026762000104565b5b81516200027a84826020860162000205565b91505092915050565b6000819050919050565b620002988162000283565b8114620002a457600080fd5b50565b600081519050620002b8816200028d565b92915050565b600080600060608486031215620002da57620002d9620000fa565b5b600084015167ffffffffffffffff811115620002fb57620002fa620000ff565b5b620003098682870162000250565b935050602084015167ffffffffffffffff8111156200032d576200032c620000ff565b5b6200033b8682870162000250565b92505060406200034e86828701620002a7565b9150509250925092565b600081519050919050565b7f4e487b7100000000000000000000000000000000000000000000000000000000600052602260045260246000fd5b60006002820490506001821680620003ab57607f821691505b602082108103620003c157620003c062000363565b5b50919050565b60008190508160005260206000209050919050565b60006020601f8301049050919050565b600082821b905092915050565b6000600883026200042b7fffffffffffffffffffffffffffffffffffffffffffffffffffffffffffffffff82620003ec565b620004378683620003ec565b95508019841693508086168417925050509392505050565b6000819050919050565b60006200047a620004746200046e8462000283565b6200044f565b62000283565b9050919050565b6000819050919050565b620004968362000459565b620004ae620004a58262000481565b848454620003f9565b825550505050565b600090565b620004c5620004b6565b620004d28184846200048b565b505050565b5b81811015620004fa57620004ee600082620004bb565b600181019050620004d8565b5050565b601f82111562000549576200051381620003c7565b6200051e84620003dc565b810160208510156200052e578190505b620005466200053d85620003dc565b830182620004d7565b50505b505050565b600082821c905092915050565b60006200056e600019846008026200054e565b1980831691505092915050565b60006200058983836200055b565b9150826002028217905092915050565b620005a48262000358565b67ffffffffffffffff811115620005c057620005bf6200011f565b5b620005cc825462000392565b620005d9828285620004fe565b600060209050601f831160018114620006115760008415620005fc578287015190505b6200060885826200057b565b86555062000678565b601f1984166200062186620003c7565b60005b828110156200064b5784890151825560018201915060208501945060208101905062000624565b868310156200066b578489015162000667601f8916826200055b565b8355505b6001600288020188555050505b505050505050565b61155480620006906000396000f3fe608060405234801561001057600080fd5b50600436106100cf5760003560e01c806370a082311161008c578063a4e2d63411610066578063a4e2d6341461023c578063a6f9dae11461025a578063a9059cbb1461028a578063dd62ed3e146102ba576100cf565b806370a08231146101d05780638da5cb5b1461020057806395d89b411461021e576100cf565b806306fdde03146100d4578063095ea7b3146100f25780630dd0a0421461012257806318160ddd1461015257806323b872dd1461017057806342966c68146101a0575b600080fd5b6100dc6102ea565b6040516100e99190610f60565b60405180910390f35b61010c6004803603810190610107919061101b565b610378565b6040516101199190611076565b60405180910390f35b61013c600480360381019061013791906110bd565b6104ba565b6040516101499190611076565b60405180910390f35b61015a6105df565b60405161016791906110f9565b60405180910390f35b61018a60048036038101906101859190611114565b6105e5565b6040516101979190611076565b60405180910390f35b6101ba60048036038101906101b59190611167565b610927565b6040516101c79190611076565b60405180910390f35b6101ea60048036038101906101e59190611194565b610b01565b6040516101f791906110f9565b60405180910390f35b610208610b19565b60405161021591906111d0565b60405180910390f35b610226610b3f565b6040516102339190610f60565b60405180910390f35b610244610bcd565b6040516102519190611076565b60405180910390f35b610274600480360381019061026f9190611194565b610be0565b6040516102819190611076565b60405180910390f35b6102a4600480360381019061029f919061101b565b610cbc565b6040516102b19190611076565b60405180910390f35b6102d460048036038101906102cf91906111eb565b610eab565b6040516102e191906110f9565b60405180910390f35b600080546102f79061125a565b80601f01602080910402602001604051908101604052809291908181526020018280546103239061125a565b80156103705780601f1061034557610100808354040283529160200191610370565b820191906000526020600020905b81548152906001019060200180831161035357829003601f168201915b505050505081565b6000600660009054906101000a900460ff16156103ca576040517f08c379a00000000000000000000000000000000000000000000000000000000081526004016103c1906112fd565b60405180910390fd5b81600560003373ffffffffffffffffffffffffffffffffffffffff1673ffffffffffffffffffffffffffffffffffffffff16815260200190815260200160002060008573ffffffffffffffffffffffffffffffffffffffff1673ffffffffffffffffffffffffffffffffffffffff168152602001908152602001600020819055508273ffffffffffffffffffffffffffffffffffffffff163373ffffffffffffffffffffffffffffffffffffffff167f8c5be1e5ebec7d5bd14f71427d1e84f3dd0314c0f7b2291e5b200ac8c7c3b925846040516104a891906110f9565b60405180910390a36001905092915050565b6000600360009054906101000a900473ffffffffffffffffffffffffffffffffffffffff1673ffffffffffffffffffffffffffffffffffffffff163373ffffffffffffffffffffffffffffffffffffffff161461054c576040517f08c379a00000000000000000000000000000000000000000000000000000000081526004016105439061138f565b60405180910390fd5b81600660006101000a81548160ff021916908315150217905550600360009054906101000a900473ffffffffffffffffffffffffffffffffffffffff1673ffffffffffffffffffffffffffffffffffffffff167f4167566c670b1fd1c64e646e19cb4ef63d0109f1af19955fa6555a550499dd93836040516105ce9190611076565b60405180910390a260019050919050565b60025481565b6000600660009054906101000a900460ff1615610637576040517f08c379a000000000000000000000000000000000000000000000000000000000815260040161062e906112fd565b60405180910390fd5b600460008573ffffffffffffffffffffffffffffffffffffffff1673ffffffffffffffffffffffffffffffffffffffff168152602001908152602001600020548211156106b9576040517f08c379a00000000000000000000000000000000000000000000000000000000081526004016106b0906113fb565b60405180910390fd5b600560008573ffffffffffffffffffffffffffffffffffffffff1673ffffffffffffffffffffffffffffffffffffffff16815260200190815260200160002060003373ffffffffffffffffffffffffffffffffffffffff1673ffffffffffffffffffffffffffffffffffffffff16815260200190815260200160002054821115610778576040517f08c379a000000000000000000000000000000000000000000000000000000000815260040161076f90611467565b60405180910390fd5b81600460008673ffffffffffffffffffffffffffffffffffffffff1673ffffffffffffffffffffffffffffffffffffffff16815260200190815260200160002060008282546107c791906114b6565b9250508190555081600460008573ffffffffffffffffffffffffffffffffffffffff1673ffffffffffffffffffffffffffffffffffffffff168152602001908152602001600020600082825461081d91906114ea565b9250508190555081600560008673ffffffffffffffffffffffffffffffffffffffff1673ffffffffffffffffffffffffffffffffffffffff16815260200190815260200160002060003373ffffffffffffffffffffffffffffffffffffffff1673ffffffffffffffffffffffffffffffffffffffff16815260200190815260200160002060008282546108b091906114b6565b925050819055508273ffffffffffffffffffffffffffffffffffffffff168473ffffffffffffffffffffffffffffffffffffffff167fddf252ad1be2c89b69c2b068fc378daa952ba7f163c4a11628f55a4df523b3ef8460405161091491906110f9565b60405180910390a3600190509392505050565b6000600360009054906101000a900473ffffffffffffffffffffffffffffffffffffffff1673ffffffffffffffffffffffffffffffffffffffff163373ffffffffffffffffffffffffffffffffffffffff16146109b9576040517f08c379a00000000000000000000000000000000000000000000000000000000081526004016109b09061138f565b60405180910390fd5b81600460003373ffffffffffffffffffffffffffffffffffffffff1673ffffffffffffffffffffffffffffffffffffffff168152602001908152602001600020541015610a3b576040517f08c379a0000000000000000000000000000000000000000000000000000000008152600401610a32906113fb565b60405180910390fd5b81600460003373ffffffffffffffffffffffffffffffffffffffff1673ffffffffffffffffffffffffffffffffffffffff1681526020019081526020016000206000828254610a8a91906114b6565b925050819055508160026000828254610aa391906114b6565b925050819055503373ffffffffffffffffffffffffffffffffffffffff167fcc16f5dbb4873280815c1ee09dbd06736cffcc184412cf7a71a0fdb75d397ca583604051610af091906110f9565b60405180910390a260019050919050565b60046020528060005260406000206000915090505481565b600360009054906101000a900473ffffffffffffffffffffffffffffffffffffffff1681565b60018054610b4c9061125a565b80601f0160208091040260200160405190810160405280929190818152602001828054610b789061125a565b8015610bc55780601f10610b9a57610100808354040283529160200191610bc5565b820191906000526020600020905b815481529060010190602001808311610ba857829003601f168201915b505050505081565b600660009054906101000a900460ff1681565b6000600360009054906101000a900473ffffffffffffffffffffffffffffffffffffffff1673ffffffffffffffffffffffffffffffffffffffff163373ffffffffffffffffffffffffffffffffffffffff1614610c72576040517f08c379a0000000000000000000000000000000000000000000000000000000008152600401610c699061138f565b60405180910390fd5b81600360006101000a81548173ffffffffffffffffffffffffffffffffffffffff021916908373ffffffffffffffffffffffffffffffffffffffff16021790555060019050919050565b6000600660009054906101000a900460ff1615610d0e576040517f08c379a0000000000000000000000000000000000000000000000000000000008152600401610d05906112fd565b60405180910390fd5b81600460003373ffffffffffffffffffffffffffffffffffffffff1673ffffffffffffffffffffffffffffffffffffffff168152602001908152602001600020541015610d90576040517f08c379a0000000000000000000000000000000000000000000000000000000008152600401610d87906113fb565b60405180910390fd5b81600460003373ffffffffffffffffffffffffffffffffffffffff1673ffffffffffffffffffffffffffffffffffffffff1681526020019081526020016000206000828254610ddf91906114b6565b9250508190555081600460008573ffffffffffffffffffffffffffffffffffffffff1673ffffffffffffffffffffffffffffffffffffffff1681526020019081526020016000206000828254610e3591906114ea565b925050819055508273ffffffffffffffffffffffffffffffffffffffff163373ffffffffffffffffffffffffffffffffffffffff167fddf252ad1be2c89b69c2b068fc378daa952ba7f163c4a11628f55a4df523b3ef84604051610e9991906110f9565b60405180910390a36001905092915050565b6005602052816000526040600020602052806000526040600020600091509150505481565b600081519050919050565b600082825260208201905092915050565b60005b83811015610f0a578082015181840152602081019050610eef565b60008484015250505050565b6000601f19601f8301169050919050565b6000610f3282610ed0565b610f3c8185610edb565b9350610f4c818560208601610eec565b610f5581610f16565b840191505092915050565b60006020820190508181036000830152610f7a8184610f27565b905092915050565b600080fd5b600073ffffffffffffffffffffffffffffffffffffffff82169050919050565b6000610fb282610f87565b9050919050565b610fc281610fa7565b8114610fcd57600080fd5b50565b600081359050610fdf81610fb9565b92915050565b6000819050919050565b610ff881610fe5565b811461100357600080fd5b50565b60008135905061101581610fef565b92915050565b6000806040838503121561103257611031610f82565b5b600061104085828601610fd0565b925050602061105185828601611006565b9150509250929050565b60008115159050919050565b6110708161105b565b82525050565b600060208201905061108b6000830184611067565b92915050565b61109a8161105b565b81146110a557600080fd5b50565b6000813590506110b781611091565b92915050565b6000602082840312156110d3576110d2610f82565b5b60006110e1848285016110a8565b91505092915050565b6110f381610fe5565b82525050565b600060208201905061110e60008301846110ea565b92915050565b60008060006060848603121561112d5761112c610f82565b5b600061113b86828701610fd0565b935050602061114c86828701610fd0565b925050604061115d86828701611006565b9150509250925092565b60006020828403121561117d5761117c610f82565b5b600061118b84828501611006565b91505092915050565b6000602082840312156111aa576111a9610f82565b5b60006111b884828501610fd0565b91505092915050565b6111ca81610fa7565b82525050565b60006020820190506111e560008301846111c1565b92915050565b6000806040838503121561120257611201610f82565b5b600061121085828601610fd0565b925050602061122185828601610fd0565b9150509250929050565b7f4e487b7100000000000000000000000000000000000000000000000000000000600052602260045260246000fd5b6000600282049050600182168061127257607f821691505b6020821081036112855761128461122b565b5b50919050565b7f546f6b656e207472616e736665722069732063757272656e746c79206c6f636b60008201527f6564000000000000000000000000000000000000000000000000000000000000602082015250565b60006112e7602283610edb565b91506112f28261128b565b604082019050919050565b60006020820190508181036000830152611316816112da565b9050919050565b7f4f6e6c79206f776e65722063616e2063616c6c20746869732066756e6374696f60008201527f6e00000000000000000000000000000000000000000000000000000000000000602082015250565b6000611379602183610edb565b91506113848261131d565b604082019050919050565b600060208201905081810360008301526113a88161136c565b9050919050565b7f496e73756666696369656e742062616c616e6365000000000000000000000000600082015250565b60006113e5601483610edb565b91506113f0826113af565b602082019050919050565b60006020820190508181036000830152611414816113d8565b9050919050565b7f416c6c6f77616e63652065786365656465640000000000000000000000000000600082015250565b6000611451601283610edb565b915061145c8261141b565b602082019050919050565b6000602082019050818103600083015261148081611444565b9050919050565b7f4e487b7100000000000000000000000000000000000000000000000000000000600052601160045260246000fd5b60006114c182610fe5565b91506114cc83610fe5565b92508282039050818111156114e4576114e3611487565b5b92915050565b60006114f582610fe5565b915061150083610fe5565b925082820190508082111561151857611517611487565b5b9291505056fea2646970667358221220d1dd09bb8f59f797a2a409597891072ed094941c0ddf1458eb1e916061c625a364736f6c63430008130033",
  "immutableReferences": {},
  "source": "pragma solidity ^0.8.0;\r\n\r\ncontract MyToken {\r\n    string public name;\r\n    string public symbol;\r\n    uint256 public totalSupply;\r\n    address public owner;\r\n    mapping(address => uint256) public balanceOf;\r\n    mapping(address => mapping(address => uint256)) public allowance;\r\n    bool public isLocked;\r\n\r\n    event Transfer(address indexed from, address indexed to, uint256 value);\r\n    event Approval(address indexed owner, address indexed spender, uint256 value);\r\n    event Burn(address indexed from, uint256 value);\r\n    event Lock(address indexed owner, bool status);\r\n\r\n    constructor(string memory _name, string memory _symbol, uint256 _totalSupply) {\r\n        name = _name;\r\n        symbol = _symbol;\r\n        totalSupply = _totalSupply;\r\n        owner = msg.sender;\r\n        balanceOf[msg.sender] = _totalSupply;\r\n    }\r\n\r\n    modifier onlyOwner() {\r\n        require(msg.sender == owner, \"Only owner can call this function\");\r\n        _;\r\n    }\r\n\r\n    modifier isNotLocked() {\r\n        require(!isLocked, \"Token transfer is currently locked\");\r\n        _;\r\n    }\r\n\r\n    function transfer(address _to, uint256 _value) public isNotLocked returns (bool success) {\r\n        require(balanceOf[msg.sender] >= _value, \"Insufficient balance\");\r\n        balanceOf[msg.sender] -= _value;\r\n        balanceOf[_to] += _value;\r\n        emit Transfer(msg.sender, _to, _value);\r\n        return true;\r\n    }\r\n\r\n    function approve(address _spender, uint256 _value) public isNotLocked returns (bool success) {\r\n        allowance[msg.sender][_spender] = _value;\r\n        emit Approval(msg.sender, _spender, _value);\r\n        return true;\r\n    }\r\n\r\n    function transferFrom(address _from, address _to, uint256 _value) public isNotLocked returns (bool success) {\r\n        require(_value <= balanceOf[_from], \"Insufficient balance\");\r\n        require(_value <= allowance[_from][msg.sender], \"Allowance exceeded\");\r\n        balanceOf[_from] -= _value;\r\n        balanceOf[_to] += _value;\r\n        allowance[_from][msg.sender] -= _value;\r\n        emit Transfer(_from, _to, _value);\r\n        return true;\r\n    }\r\n\r\n    function burn(uint256 _value) public onlyOwner returns (bool success) {\r\n        require(balanceOf[msg.sender] >= _value, \"Insufficient balance\");\r\n        balanceOf[msg.sender] -= _value;\r\n        totalSupply -= _value;\r\n        emit Burn(msg.sender, _value);\r\n        return true;\r\n    }\r\n\r\n    function lock(bool _status) public onlyOwner returns (bool success) {\r\n        isLocked = _status;\r\n        emit Lock(owner, _status);\r\n        return true;\r\n    }\r\n\r\n    function changeOwner(address _newOwner) public onlyOwner returns (bool success) {\r\n        owner = _newOwner;\r\n        return true;\r\n    }\r\n}\r\n",
  "sourcePath": "C:\\Users\\MyPC\\Documents\\Nam4\\Blockchain\\new-truffle-prj\\contracts\\MyToken.sol",
  "compiler": {
    "name": "solc",
    "version": "0.8.19+commit.7dd6d404.Emscripten.clang"
  },
  "schemaVersion": "3.4.13",
  "updatedAt": "2023-04-21T02:46:07.612Z",
  "devdoc": {
    "kind": "dev",
    "methods": {},
    "version": 1
  },
  "userdoc": {
    "kind": "user",
    "methods": {},
    "version": 1
  }
}